{
  "_format": "hh-sol-artifact-1",
  "contractName": "StudentDetail",
  "sourceName": "contracts/StudentDetail.sol",
  "abi": [
    {
      "inputs": [
        {
          "internalType": "string",
          "name": "_countryName",
          "type": "string"
        }
      ],
      "name": "country",
      "outputs": [
        {
          "internalType": "string",
          "name": "",
          "type": "string"
        }
      ],
      "stateMutability": "nonpayable",
      "type": "function"
    },
    {
      "inputs": [],
      "name": "getCountry",
      "outputs": [
        {
          "internalType": "string",
          "name": "",
          "type": "string"
        }
      ],
      "stateMutability": "view",
      "type": "function"
    },
    {
      "inputs": [],
      "name": "getSchool",
      "outputs": [
        {
          "internalType": "string",
          "name": "",
          "type": "string"
        }
      ],
      "stateMutability": "view",
      "type": "function"
    },
    {
      "inputs": [],
      "name": "getStudentName",
      "outputs": [
        {
          "internalType": "string",
          "name": "",
          "type": "string"
        }
      ],
      "stateMutability": "view",
      "type": "function"
    },
    {
      "inputs": [
        {
          "internalType": "string",
          "name": "_schoolName",
          "type": "string"
        }
      ],
      "name": "school",
      "outputs": [
        {
          "internalType": "string",
          "name": "",
          "type": "string"
        }
      ],
      "stateMutability": "nonpayable",
      "type": "function"
    },
    {
      "inputs": [
        {
          "internalType": "string",
          "name": "_firstName",
          "type": "string"
        },
        {
          "internalType": "string",
          "name": "_lastName",
          "type": "string"
        }
      ],
      "name": "studentName",
      "outputs": [
        {
          "internalType": "string",
          "name": "",
          "type": "string"
        }
      ],
      "stateMutability": "nonpayable",
      "type": "function"
    }
  ],
  "bytecode": "0x608060405234801561001057600080fd5b50610d06806100206000396000f3fe608060405234801561001057600080fd5b50600436106100625760003560e01c80630b0ae20b146100675780633ad06b25146100975780639e0c3ead146100c7578063a9e3e7c1146100e5578063c82882a014610103578063e291d69f14610133575b600080fd5b610081600480360381019061007c91906106f7565b610151565b60405161008e91906107ee565b60405180910390f35b6100b160048036038101906100ac9190610810565b61029f565b6040516100be91906107ee565b60405180910390f35b6100cf610343565b6040516100dc91906107ee565b60405180910390f35b6100ed6103d5565b6040516100fa91906107ee565b60405180910390f35b61011d60048036038101906101189190610810565b610467565b60405161012a91906107ee565b60405180910390f35b61013b61050b565b60405161014891906107ee565b60405180910390f35b60606000835111610197576040517f08c379a000000000000000000000000000000000000000000000000000000000815260040161018e906108a5565b60405180910390fd5b60008251116101db576040517f08c379a00000000000000000000000000000000000000000000000000000000081526004016101d290610911565b60405180910390fd5b82826040516020016101ee9291906109b9565b6040516020818303038152906040526000908161020b9190610bfe565b506000805461021990610a17565b80601f016020809104026020016040519081016040528092919081815260200182805461024590610a17565b80156102925780601f1061026757610100808354040283529160200191610292565b820191906000526020600020905b81548152906001019060200180831161027557829003601f168201915b5050505050905092915050565b606081600290816102b09190610bfe565b50600280546102be90610a17565b80601f01602080910402602001604051908101604052809291908181526020018280546102ea90610a17565b80156103375780601f1061030c57610100808354040283529160200191610337565b820191906000526020600020905b81548152906001019060200180831161031a57829003601f168201915b50505050509050919050565b60606002805461035290610a17565b80601f016020809104026020016040519081016040528092919081815260200182805461037e90610a17565b80156103cb5780601f106103a0576101008083540402835291602001916103cb565b820191906000526020600020905b8154815290600101906020018083116103ae57829003601f168201915b5050505050905090565b6060600180546103e490610a17565b80601f016020809104026020016040519081016040528092919081815260200182805461041090610a17565b801561045d5780601f106104325761010080835404028352916020019161045d565b820191906000526020600020905b81548152906001019060200180831161044057829003601f168201915b5050505050905090565b606081600190816104789190610bfe565b506001805461048690610a17565b80601f01602080910402602001604051908101604052809291908181526020018280546104b290610a17565b80156104ff5780601f106104d4576101008083540402835291602001916104ff565b820191906000526020600020905b8154815290600101906020018083116104e257829003601f168201915b50505050509050919050565b60606000805461051a90610a17565b80601f016020809104026020016040519081016040528092919081815260200182805461054690610a17565b80156105935780601f1061056857610100808354040283529160200191610593565b820191906000526020600020905b81548152906001019060200180831161057657829003601f168201915b5050505050905090565b6000604051905090565b600080fd5b600080fd5b600080fd5b600080fd5b6000601f19601f8301169050919050565b7f4e487b7100000000000000000000000000000000000000000000000000000000600052604160045260246000fd5b610604826105bb565b810181811067ffffffffffffffff82111715610623576106226105cc565b5b80604052505050565b600061063661059d565b905061064282826105fb565b919050565b600067ffffffffffffffff821115610662576106616105cc565b5b61066b826105bb565b9050602081019050919050565b82818337600083830152505050565b600061069a61069584610647565b61062c565b9050828152602081018484840111156106b6576106b56105b6565b5b6106c1848285610678565b509392505050565b600082601f8301126106de576106dd6105b1565b5b81356106ee848260208601610687565b91505092915050565b6000806040838503121561070e5761070d6105a7565b5b600083013567ffffffffffffffff81111561072c5761072b6105ac565b5b610738858286016106c9565b925050602083013567ffffffffffffffff811115610759576107586105ac565b5b610765858286016106c9565b9150509250929050565b600081519050919050565b600082825260208201905092915050565b60005b838110156107a957808201518184015260208101905061078e565b60008484015250505050565b60006107c08261076f565b6107ca818561077a565b93506107da81856020860161078b565b6107e3816105bb565b840191505092915050565b6000602082019050818103600083015261080881846107b5565b905092915050565b600060208284031215610826576108256105a7565b5b600082013567ffffffffffffffff811115610844576108436105ac565b5b610850848285016106c9565b91505092915050565b7f4669727374206e616d65206d757374206e6f7420626520656d70747900000000600082015250565b600061088f601c8361077a565b915061089a82610859565b602082019050919050565b600060208201905081810360008301526108be81610882565b9050919050565b7f4c617374206e616d65206d757374206e6f7420626520656d7074790000000000600082015250565b60006108fb601b8361077a565b9150610906826108c5565b602082019050919050565b6000602082019050818103600083015261092a816108ee565b9050919050565b600081905092915050565b60006109478261076f565b6109518185610931565b935061096181856020860161078b565b80840191505092915050565b7f2000000000000000000000000000000000000000000000000000000000000000600082015250565b60006109a3600183610931565b91506109ae8261096d565b600182019050919050565b60006109c5828561093c565b91506109d082610996565b91506109dc828461093c565b91508190509392505050565b7f4e487b7100000000000000000000000000000000000000000000000000000000600052602260045260246000fd5b60006002820490506001821680610a2f57607f821691505b602082108103610a4257610a416109e8565b5b50919050565b60008190508160005260206000209050919050565b60006020601f8301049050919050565b600082821b905092915050565b600060088302610aaa7fffffffffffffffffffffffffffffffffffffffffffffffffffffffffffffffff82610a6d565b610ab48683610a6d565b95508019841693508086168417925050509392505050565b6000819050919050565b6000819050919050565b6000610afb610af6610af184610acc565b610ad6565b610acc565b9050919050565b6000819050919050565b610b1583610ae0565b610b29610b2182610b02565b848454610a7a565b825550505050565b600090565b610b3e610b31565b610b49818484610b0c565b505050565b5b81811015610b6d57610b62600082610b36565b600181019050610b4f565b5050565b601f821115610bb257610b8381610a48565b610b8c84610a5d565b81016020851015610b9b578190505b610baf610ba785610a5d565b830182610b4e565b50505b505050565b600082821c905092915050565b6000610bd560001984600802610bb7565b1980831691505092915050565b6000610bee8383610bc4565b9150826002028217905092915050565b610c078261076f565b67ffffffffffffffff811115610c2057610c1f6105cc565b5b610c2a8254610a17565b610c35828285610b71565b600060209050601f831160018114610c685760008415610c56578287015190505b610c608582610be2565b865550610cc8565b601f198416610c7686610a48565b60005b82811015610c9e57848901518255600182019150602085019450602081019050610c79565b86831015610cbb5784890151610cb7601f891682610bc4565b8355505b6001600288020188555050505b50505050505056fea2646970667358221220b505a1a17ef82c202996dd8299cfbd0ccabdef64c7123d59080bfeac121db43a64736f6c63430008140033",
  "linkReferences": {},
  "deployedLinkReferences": {}
}